:020000040800F2
:10000000481A0024F5030008194C0108E904010806
:10001000F923010881270008D182010800000000AF
:10002000000000000000000000000000A9540108CA
:100030005134000800000000994E010809550108DC
:100040000F0400080F0400080F0400080F04000844
:100050000F0400080F0400080F0400080F04000834
:100060000F0400080F0400080F040008812900088D
:1000700091290008A1290008B1290008C129000818
:100080000F0400080F0400080F0400088134000862
:10009000A134000891340008B13400080F040008AE
:1000A0000F0400080F0400080F0400080F040008E4
:1000B0000F0400080F0400080F0400080F040008D4
:1000C0000F0400080F0400080F0400080F040008C4
:1000D0000F0400080F0400080F0400080F040008B4
:1000E0000F0400080F040008000000000F040008BF
:1000F0000F0400080F0400080F0400080F04000894
:100100000F0400080F0400080F0400080F04000883
:100110000F0400080F040008215701083157010897
:100120000F0400080F0400080F0400080F04000863
:100130000F0400080F0400080F0400080F04000853
:1001400000000000000000000000000000000000AF
:100150000F0400080F0400080F0400080F04000833
:100160000F0400080F0400080F0400080F04000823
:100170000F0400080F0400080F040008000000002E
:100180000F0400080F040008C96501085168010840
:100190000F0400080F0400080F0400080F040008F3
:1001A0000F0400080F0400080F04000800000000FE
:1001B0000F0400080F0400080F0400080F040008D3
:1001C0000F0400080F0400080000000000000000F9
:1001D00000000000000000000F0400080000000004
:1001E000000000000000000000000000000000000F
:1001F00000000000000000000F0400080F040008C9
:100200000F0400080F040008000000000F0400089D
:100210000F0400080F0400080F0400080F04000872
:100220000F040008000000000F0400080000000098
:100230000F0400080F040008000000000F0400086D
:100240000F0400080F0400080F0400080F04000842
:100250000F0400080F0400080F0400080F04000832
:100260000F0400080F0400080F0400080F04000822
:100270000F0400080F0400080F040008000000002D
:100280000F0400080F0400080F0400080F04000802
:10029000000000000F0400080F0400080000000028
:1002A000000000000F0400080F040008D96A0108CC
:1002B000498001080F0400080F0400080F0400081B
:1002C0000F0400080F0400080F04000800F002F8F3
:1002D00000F080F814A696E8000CB244B344DA4566
:1002E00001D100F077F8BAE80F000FA696E83000C9
:1002F000A5EB040504EB0607AAEB0704A7F1010729
:100300004FEA15154FEA3414A4F10104AC4201D3AD
:1003100000F060F813F0010F18BFFB1A43F001035F
:1003200000F001F8DBE7184718B7010038B7010003
:100330000A444FF0000C10F8013B13F0070408BF0B
:1003400010F8014B1D1108BF10F8015B641E05D0A9
:1003500010F8016B641E01F8016BF9D113F0080F5E
:100360001EBF10F8014BAD1C0C1B09D16D1E58BFF0
:1003700001F801CBFAD505E014F8016B01F8016B27
:100380006D1EF9D59142D6D370470000704700002A
:100390000023002400250026103A28BF78C1FBD88E
:1003A000520728BF30C148BF0B6070471FB51BF014
:1003B00019F901F067FB0400002000211BF0F4F89C
:1003C000401C6060002000211BF0D8F8E0601FBDD9
:1003D00010B510BD01F030FB1146FFF7E7FF19F033
:1003E000FFF901F0D9FB03B4FFF7F2FF03BC01F002
:1003F00047FE00000948804709480047FEE7FEE73E
:10040000FEE7FEE7FEE7FEE7FEE7FEE7FEE7FEE7C4
:1004100004480549054A064B70470000E1550108AC
:10042000CD02000848140024481A0024481600246D
:100430004816002453EA020C00F069802DE9F04BC5
:100440004FF00006002B1FBFB3FA83F503FA05F443
:1004500024FA05F65E4012BF1643B2FA82F502FA9C
:1004600005F4C5F120051EBF22FA05FC44EA0C0480
:10047000203556EA044C4FEA144418BF641C4FF070
:1004800000084FF00009904271EB030C39D30029AA
:1004900019BFB1FA81F701FA07F6B0FA80F700FA4E
:1004A00007F6C7F120071EBF20FA07FC46EA0C0634
:1004B0002037B6FBF4FCA7EB0507103F07F01F0B36
:1004C000CBF120062CFA06F60CFA0BFB44BFB34620
:1004D0000026202FA4BF5E464FF0000B5BEA060CFF
:1004E00008BF4FF0010B19EB0B0948EB0608ABFBFB
:1004F000027C06FB02CC0BFB03CCC01B71EB0C0196
:10050000C1E70B46024641464846BDE8F08B13B5AD
:10051000084318BF4FF0FF300146AFF30080BDE83D
:100520001C4070470FB400B58DB010A90990009120
:100530000B904FF0FF300A9000200C900648784452
:100540000690064878446A4607900F9909A800F07B
:1005500011FB0DB05DF814FB530600006B060000A4
:1005600070B5064600F030F90468054630460A22A8
:10057000002100F087FB2C6070BD0000014A00F0F4
:100580001FBD00000000002430B505460B462A467A
:1005900013F8014B12F8010B08B1A042F8D01CB1BE
:1005A000002802D06D1CF1E7284630BD10B5431C71
:1005B00002E010F8011B71B18107FAD14FF001324E
:1005C00002C88C1A8C4314EAC211F9D0C01A0A0668
:1005D00003D0C01E10BDC01A10BD0A0401D0801E79
:1005E00010BD0902FCD0401E10BD032A40F230802D
:1005F00010F0030C00F0158011F8013BBCF1020F64
:10060000624498BF11F801CB00F8013B38BF11F8E4
:10061000013BA2F1040298BF00F801CB38BF00F8FB
:10062000013B11F0030300F02580083AC0F0088078
:1006300051F8043B083A51F804CBA0E80810F5E75C
:10064000121D5CBF51F8043B40F8043BAFF300803F
:10065000D20724BF11F8013B11F801CB48BF11F8B4
:10066000012B24BF00F8013B00F801CB48BF00F884
:10067000012B704710B5203AC0F00B80B1E818503C
:10068000A0E81850B1E81850A0E81850203ABFF47C
:10069000F5AF5FEA027C24BFB1E81850A0E818501B
:1006A00044BF18C918C0BDE810405FEA827C24BF6F
:1006B00051F8043B40F8043B08BF7047D20728BFFD
:1006C00031F8023B48BF11F8012B28BF20F8023B4C
:1006D00048BF00F8012B70474FF000020429C0F01A
:1006E000128010F0030C00F01B80CCF1040CBCF164
:1006F000020F18BF00F8012BA8BF20F8022BA1EBB6
:100700000C0100F00DB85FEAC17C24BF00F8012B9A
:1007100000F8012B48BF00F8012B70474FF0000292
:1007200000B5134694469646203922BFA0E80C50E7
:10073000A0E80C50B1F12001BFF4F7AF090728BFC2
:10074000A0E80C5048BF0CC05DF804EB890028BF3E
:1007500040F8042B08BF704748BF20F8022B11F067
:10076000804F18BF00F8012B704710B5044610F0F9
:10077000030F08BF11F0030F40F015804FF0013E4A
:10078000121FC0F20E8051F8043BA3EB0E0C2CEAB2
:10079000030C1CEACE1C08BF40F8043BF0D0A1F1CA
:1007A000040102F10402521E08DB11F8013B00F8BB
:1007B000013B002BF7D11146FFF78EFF204610BDFD
:1007C000704770477047000000487047900600244B
:1007D00010B5FFF7F9FF006810BD10B50446FFF72C
:1007E000F3FF046010BD2DE9FF4F1C4691464FF00A
:1007F000FF3581B000218A468846D4E90167A169A6
:1008000002986D1C8847216A834688470028F6D1E4
:10081000BBF1FF3F0CD0002F26F4C0661ADD700636
:1008200015D5BBF12B0F0AD0BBF12D0F0FD104E072
:100830004FF0FF3005B0BDE8F08F46F48066A16947
:1008400002986D1C88477F1E8346002F02DDBBF196
:10085000300F03D0B9F1000F2AD025E0A1696D1C3B
:1008600002987F1E46F400768847002F834605DDF8
:10087000BBF1780F06D0BBF1580F03D0B9F1000FD0
:1008800010D011E0B9F1000F02D0B9F1100F0BD167
:10089000A1696D1C02987F1E26F400768847834666
:1008A000102000E0082081464FEAE970009017E030
:1008B0000A20F8E74346AAFB0928DDF800C07F1E9E
:1008C00003FB098046F4007605F101050AFB0C01E3
:1008D00012EB0B0A029841EBEB78A169884783463B
:1008E000002F06DD4946584600F0A1FB5FEA000BE9
:1008F000E0D5E16902988847B00502D46FF00100A5
:1009000098E7F00718D1700610D55146700505D547
:100910000023D1EB030163EB080200E042462068AC
:10092000031D23600068C0E9001205E02068011D76
:1009300021600068C0E900A828467BE72DE9FF5F39
:100940001D464FF0FF3B91464FF000085F46D5E94A
:100950000146A96901987F1C8847296A8246884711
:100960000028F6D1BAF1FF3F0CD0002E24F4C06469
:1009700019DD600614D5BAF12B0F09D0BAF12D0F8D
:100980000ED103E0584604B0BDE8F09F44F4806403
:10099000A96901987F1C8847761E8246002E02DDD9
:1009A000BAF1300F03D0B9F1000F26D032E0A969B7
:1009B000761E01987F1C44F400748847002E8246FE
:1009C00005DDBAF1780F06D0BAF1580F03D0B9F1AE
:1009D000000F10D01EE0B9F1000F02D0B9F1100FD6
:1009E00018D1A969761E01987F1C24F400748847E9
:1009F0008246102002E0082000E00A20814609E03B
:100A0000A96908FB0908761E01987F1C44F400744C
:100A100088478246002E05DD4946504600F007FB18
:100A20000028EDDAE96901988847A00502D46FF043
:100A30000100A8E7E00725D1600613D5600502D5BF
:100A4000C8F1000000E0404629680A1D2A600968D4
:100A5000220501D5087015E0220701D5088011E0B4
:100A600008600FE02868011D29600068210502D593
:100A700080F8008006E0210702D5A0F8008001E0A0
:100A8000C0F8008038467EE72DE9FF5F4FF0000890
:100A90009946144646469169D2E901A7DDF838B077
:100AA00001988847054659EA0B0005D009E0A1697D
:100AB0000198761C88470546216A28468847002801
:100AC000F5D1681C03D05FEACA7005D015E04FF07D
:100AD000FF3004B0BDE8F09F2068011D2160D0F810
:100AE00000800AE05FEACA7001D108F8015BA169E1
:100AF000761C01987F1E88470546002F1ADD681C6A
:100B000018D0B9F1000F0DD0E81705EBD0604211F5
:100B100020F01F0059F822102A1A012090400142AB
:100B2000E0D107E0BBF1000FDCD12846216A8847FD
:100B30000028D7D0E16901988847BBF1000F07D1A1
:100B4000002E05DD5FEACA7002D1002188F800108E
:100B5000A068B84203DDBBF1000F03D017B16FF0FE
:100B60000100B6E73046B4E702681144137801602B
:100B700018467047D1600549794451610449794468
:100B8000116200211161114600F060BAEDFFFFFF14
:100B90009B040000426842B1016811F8013B23B197
:100BA000521EC0E90012184670470121C160881E1C
:100BB000704742685AB1C368016843B983688B4281
:100BC00005D0491E521CC0E90012002070474FF0AA
:100BD000FF3070470FB40B0010B54FF000048AB01F
:100BE0000FA900910E99CC60234C7C44234A7A448F
:100BF000CDE9064200D004236FF00042CDE9013276
:100C00001F4A7A446B460892024600201AF05AFDA9
:100C10000AB010BC5DF814FBF0B507464FF0FF308A
:100C20001E4615460C463B4685B06A460091CDE906
:100C3000010131460020049004A8FFF7CBFF04997E
:100C40000346601825B109B1024600E022462A6039
:100C500000290ED0002B02DD0099814209D03B46CD
:100C60006A463146001B0094CDE9010404A8FFF751
:100C7000B1FF05B0F0BD0000A7FFFFFFC1FFFFFF00
:100C8000170400002DE9F04791460F4680460446C0
:100C9000002614F8015B2DB100F0B8F90068405D42
:100CA000C007F6D12B2D02D02D2D18D0641E4A4638
:100CB0003946204600F000FE27B13968A14201D133
:100CC000C7F800804FF0020471050BD540420028A0
:100CD00003DDFFF779FD0460A007BDE8F08746F467
:100CE0008066E4E70028F8DAFFF76EFD04606FF035
:100CF0000040F2E72DE9FF4F4FF000089A461446F6
:100D0000C146464683B0D2E901B7CDF80080CDF8A0
:100D10000480916904988847109905465AEA0100B1
:100D200005D009E0A1690498761C88470546216A28
:100D3000284688470028F5D1681C03D05FEACB70AD
:100D400005D02AE04FF0FF3007B0BDE8F08F2068F3
:100D5000011D2160D0F800801FE002A86A46E9B2B8
:100D600000F008FE411C07D0801C09D04FF000099C
:100D70005FEACB7007D00AE0E169049888473EE05B
:100D80004FF0010904E0BDF8081028F8021B7F1E8F
:100D9000A1690498761C88470546002F1ADD681C57
:100DA00018D0BAF1000F0DD0E81705EBD060421152
:100DB00020F01F005AF822102A1A01209040014208
:100DC000CBD107E010980028C7D12846216A884770
:100DD0000028C2D0E16904988847B9F1000F0ED10C
:100DE000109830B9002E04DD5FEACB7001D1A8F86D
:100DF0000000A068B84202DD109818B117B16FF07A
:100E00000100A1E730469FE72DE9FF4F4FF00008B2
:100E10009B461446454683B0D2E90196CDF8008042
:100E2000CDF804809169DDF848A00498884707460A
:100E30005BEA0A0005D009E0A16904986D1C8847A7
:100E40000746216A384688470028F5D1781C03D028
:100E50005FEAC97005D01BE04FF0FF3007B0BDE876
:100E6000F08F2068011D2160D0F8008010E05FEA5B
:100E7000C97007D16A464046B9B200F09BFD411CDB
:100E800031D08044A1696D1C0498761E88470746BE
:100E9000002E14DD781C12D0BBF1000007D03B46B9
:100EA000DDE9101200F057FD0028E0D107E0BAF1AB
:100EB000000FDCD13846216A88470028D7D0E16985
:100EC00004988847BAF1000F06D1002D04DD5FEACF
:100ED000C97001D188F80000A068B04203DDBAF102
:100EE000000F03D016B16FF00100B7E72846B5E751
:100EF0002DE9FF5F9B46144600273D469169D2E9E4
:100F00000196DDF840A00198884780465BEA0A0018
:100F100005D009E0A16901986D1C88478046216AC7
:100F2000404688470028F5D1B8F1FF3F03D05FEA7B
:100F3000C97005D014E04FF0FF3004B0BDE8F09F59
:100F40002068011D216007680AE05FEAC97001D1CD
:100F500027F8028BA1696D1C0198761E8847804690
:100F6000002E15DDB8F1FF3F12D0BBF1000007D015
:100F70004346DDE90E1200F0EEFC0028E5D107E063
:100F8000BAF1000FE1D14046216A88470028DCD041
:100F9000E16901988847BAF1000F05D1002D03DD02
:100FA0005FEAC97000D13880A068B04203DDBAF1B1
:100FB000000F03D016B16FF00100BEE72846BCE772
:100FC0002DE9F04115460E46040002D12C6804B903
:100FD0000BA4204600F022FD0444207870B127467F
:100FE0003146384600F00AFD0444207810B1002054
:100FF00004F8010B38462C60BDE8F0810027F9E7C2
:1010000000000000004870479006002410B500F072
:1010100039FD001D10BD00BF91A5010010B50446AB
:10102000FFF7F4FF0068005D00F0010010BD3A28F2
:1010300000D2303820F02002412A01D3A2F137003B
:10104000884201D34FF0FF30704700002DE9F34F85
:101050004FF0000A0C4656468DB001200C9001F16D
:101060000C000B9062690B9801219047051E2DD052
:10107000252D2CD0216A8847C0B162690B980121C7
:101080009047216A88470028F7D16269411E0B9872
:10109000904700E0761CA1690D988847216A88472F
:1010A0000028F7D1E1690D988847DBE7A1690D9821
:1010B0008847A842074601D1761CD3E7E1690D981D
:1010C00088477F1C02D1BAF1000F6FD06BE16269D3
:1010D0000B9800273D46394690472A2804D162697B
:1010E0000B98012190470125DFF8D08262690B98A7
:1010F00001219047A0F130010A290AD24745E5DCD9
:1011000007EB870100EB4107303FDFD445F01005C6
:10111000ECE7E90601D46FF000476C280AD04C28B0
:1011200014D0682815D06A280DD074281CD07A28CD
:101130001AD01DE062690B98012190476C2802D0FB
:1011400045F0040514E045F002050DE045F02005EA
:101150000AE062690B9801219047682802D045F0A7
:10116000080505E045F4006562690B980121904788
:10117000C4E9015765283DD019DC58287AD00CDC29
:10118000452837D004DC252826D041289ED131E0DF
:1011900046282FD0472899D12CE05B2877D06128AA
:1011A00028D063287CD0642823D15AE0F6E06F2849
:1011B00048D008DC66281DD067281BD0692821D0BC
:1011C0006E2816D127E0702845D0732868D075287E
:1011D00047D078280DD14DE0A1690D988847252882
:1011E00005463FF469AFE1690D9888476D1C3FF4EF
:1011F0006AAFD8E00D9923466A466FF001001AF0F5
:1012000061FAC5E045F0400023464FF000026060FF
:10121000A80736D43EE0E8077FF447AF2068011DF9
:1012200021600068290501D506701BE7290701D553
:10123000068017E7A90703D5F117C0E9006111E798
:1012400006600FE745F0400023464FF0080260605B
:10125000A80716D41EE040F60E0125EA01006060E2
:1012600016E045F0400023464FF00A026060A807F0
:1012700007D40FE045F040006060A80708D523467A
:1012800010220D996FF00100FFF7ADFA80E007E042
:10129000102223460D996FF00100FFF74FFB77E016
:1012A0004FF0000963284F46C8464B46CB4602D054
:1012B0005B2806D038E0E80601D40120A0600127B1
:1012C00032E06269D4F80CB00B98012190475E2897
:1012D00007D14FF0010949466269D4F80CB00B9868
:1012E0009047216939B900210A4603AB43F8212010
:1012F000491C0829FADBD8B3216949B308F1010870
:1013000062690B98012190475D28F4D1B9F1000F73
:1013100009D0002003A951F82020D24341F8202011
:10132000401C0828F7DB03AB2069002820794FEA2E
:1013300040701ED05B462246CDF80080CDE9019773
:101340000D9900286FF0010020DAFFF7D1FD1FE0B2
:10135000C11703AA00EBD1614B1121F01F0102EB71
:101360008302411A13680120884003431360C7E7D2
:1013700019E00D99224600286FF00100009702DA6B
:10138000FFF7B8FC04E0FFF77FFB01E0FFF73CFD4F
:1013900000280ADA401C06D10C9820B14FF0FF302B
:1013A0000FB0BDE8F08F5046FAE7E90701D10AF126
:1013B000010A064400200C9054E60000CCCCCC0C72
:1013C0002DE9FF4F06468BB00878FF2806D0491C50
:1013D0002D2805D000244FF0000908E000200CE083
:1013E0000124F8E709EB8903491C00EB430908785D
:1013F000FF28F7D114B1C9F100008146107800250B
:101400002C46AA4629462D2801D02B2804D1521C4F
:101410002D2813D0002082468B461078FF280FD04D
:101420004FF0000C0A21521CA5FB017804FB01813E
:1014300005FB0C11C5194BEB0104EEE70120EAE7AF
:10144000002108464FF00000BAF1000F02D000EB77
:1014500080004008C0F38157012F01DD4FF0FF37B6
:101460000E9955EA040009EB01080BD04FF0020970
:1014700018F5FA7F16DA4FEACA70002F706008DD9F
:10148000012007E04FEACA70C6E900B00FB0BDE81E
:10149000F08F00203060FFF797F9C0F80090182116
:1014A000084616E0B8F5FA7F18DD002F02DAF74893
:1014B000784401E0F6487844D0E90010C6E900100D
:1014C00040EACA707060FFF77FF9C0F800901421FD
:1014D00008460FB0BDE8F04F1AF091B80021084659
:1014E0004FF00000B8F10001099002DAC7F10002E4
:1014F00000E03A4601DAC8F1000106A800F0DAFA85
:1015000006AB93E8070003AB83E8070044F23E0014
:101510005BEA04010090584604D144F21E012C46B7
:101520005D460091210C0904014306D10099240471
:1015300044EA15442D041039009104F07F41014321
:1015400006D10099240244EA15642D02083900915D
:1015500004F07041014306D10099240144EA157456
:101560002D01091F009104F04041014306D100996B
:10157000A40044EA9574AD00891E009104F0004176
:10158000084304D100986D196441401E00904FF04B
:1015900001033A466846B8F1000FCDE9014503A9B9
:1015A00002DD18F08AFD01E018F05DFDBAF1000FD0
:1015B00004460D4601D084F00044002108464FF057
:1015C0000000099940F2FF77484010F00C0F07D156
:1015D00024F00040284303D0C4F30A50B84212D18B
:1015E000FFF7F2F8C0F80090C4F30A50B8420AD1ED
:1015F000A8487844D0E90010C6E9001004F0004182
:101600000843706042E7C6E900543FE72DE9FF4F09
:101610001F464FF0000A4FF0FF38454691B0D7E91A
:101620000146CDF83CA000F02DFAC0680168405C8E
:101630001090B96912986D1C8847396A81468847AD
:101640000028F6D1B9F1FF3F0AD0002E24F4D0646F
:1016500011DDB9F12B0F08D0B9F12D0F0BD102E03C
:10166000404615B013E744F48064B96912986D1CC4
:101670008847761E8146600504A901D52D2000E02B
:101680002B20002E01F1010B0DF130088DF8100018
:101690003FDDB9F1690F08D0B9F1490F05D0B9F1B3
:1016A0006E0F02D0B9F14E0F1CD13B4601A8009538
:1016B00080E85002DDE912126FF002001AF006F81D
:1016C000C11CCED10EE0B96912986D1C88478146C5
:1016D0001398761E44F4007405600F98401C002E89
:1016E0000F9016DDB9F1300FEDD0B9F1780F02D0BF
:1016F000B9F1580F0DD10F9801280AD13B46CDE919
:101700000054DDE91212001F029619F0DDFFC11C22
:10171000A7D1109989453ED144F0800406E0139981
:10172000681CAAF1010A44F400740860B9696D1CD0
:101730001298761E884730288146F0D02BE0109909
:10174000894505D1200603D4761E44F0800418E0B4
:10175000484619F090FE08B3761E0DF1230293451A
:10176000A9F1300044F4007406D20BF8010B2006F6
:1017700007D5AAF1010003E0200602D40AF1010016
:101780008246A00502D51399681C0860B9691298B1
:101790006D1C88478146002ED1DC53E0002E51DDC0
:1017A000B9F1650F02D0B9F1450F4BD1A00549D56C
:1017B000B9696D1C1298761E24F440748847002E77
:1017C00081460CDD2B2804D0B9F12D0F07D144F44C
:1017D0008074B96912986D1C8847761E8146E005B1
:1017E00001D52D2100E02B2108F8011BCDF8008048
:1017F00021E0761E0DF13901884544F400740CD2C5
:10180000A9F1300010F0FF0088F8000002D1009923
:10181000884509D908F1010806E0E00501D51E4810
:1018200001E042F20F708246B96912986D1C884738
:10183000814613980560002E04DD484619F01BFE12
:101840000028D6D1F96912988847FF2053468BF8B3
:10185000000088F8000000200A900B9004AA0CA950
:101860000AA8FFF7ADFDA00502D46FF00100F8E66D
:1018700014F0240F12D0E0071CD13868DDE90A12F9
:10188000031D3B600068C0E9001213E0B4A501002D
:10189000A6A501006AA40100F1D8FFFF0AA96846C5
:1018A00019F0E2FCE00705D13868009A011D3960A3
:1018B000006802602846D4E62DE9F05F82461546AE
:1018C0008B4600270AF10104B9460078302801D080
:1018D0009DB113E014F8010B0127782803D0582894
:1018E00001D045B10AE00DB1102D07D1002714F841
:1018F000010B102502E0082500E00A250026B0466D
:101900000EE005FB080005FB06F101271FFA80F831
:1019100001EB1046B6F5803F00D3B94614F8010B31
:101920002946FFF784FB0028EBDABBF1000F05D056
:101930000FB1641E00E05446CBF80040B9F1000F2F
:1019400006D0FEF741FF02210160C81EBDE8F09FEE
:1019500048EA0640FAE710B508E030F8024B9C422E
:1019600004D10AB1002010BD012010BD491EF4D2DF
:10197000104610BDF8B516460C460546FFF746FB67
:10198000036893F80101012804D0185D78B10120A3
:101990002C80F8BDD3F803013246214603F203132D
:1019A000C71868460023B84700992980F8BD4FF052
:1019B000FF30F8BD2DE9F04116460C460546FFF70D
:1019C00025FB036893F80101012807D0FF2C12D8EA
:1019D000185D80B101202C70BDE8F081D3F80701BB
:1019E0003246214603F20713C7182846BC46BDE815
:1019F000F041002360474FF0FF30EDE730B503467C
:101A00001D781DB10A4603E0AC4201D1181A30BD61
:101A100012F8014B002CF7D15B1CF1E730B50346FF
:101A20001D783DB10A4612F8014B1CB1AC42FAD107
:101A30005B1CF5E7181A30BD7546FFF7E3FAAE46B2
:101A400005006946534620F00700854618B020B5CA
:101A5000FEF7DEFCBDE820404FF000064FF0000727
:101A60004FF000084FF0000BAC46ACE8C009ACE802
:101A7000C009ACE8C009ACE8C00921F007018D46F7
:101A80007047000000487047B0060024B2F1200300
:101A90000AD5C2F1200301FA02F120FA03F341EA68
:101AA000030100FA02F0704700FA03F14FF0000062
:101AB000704700002DE9F047814616468AB0354848
:101AC00078440DC88DE80D0032487844801C03AC82
:101AD0000DC884E80D0041F69B300844372190FB87
:101AE000F1F290FBF1F5A5F1800501FB12041B3C1E
:101AF00002D56442012000E00020DFF898A0804673
:101B00000027FA44AAF1BE0A0EE0E0070AD03246E6
:101B1000684607EB470101230AEB810118F0B8FA88
:101B20008DE8070064107F1C002CEED1194F7F4414
:101B3000AE3F19E0E80715D007EB04100DF1180AC5
:101B400090E80E008AE80E00C068F04201D19819B2
:101B500008903246012306A903A818F099FA03ABAE
:101B600083E807006D10641C002DE3D14FF00103E2
:101B700032466946B8F1000F03A802D018F05EFAA9
:101B800001E018F085FAC9E90001C9F808200AB097
:101B9000BDE8F087A09E010010B50446AFF30080B9
:101BA0002046BDE81040FEF71EBC0000000000000B
:101BB00030B44FF0013C50F8042BCCFA52F451F8F9
:101BC000043BD51A20D1FCB950F8042BCCFA52F4BE
:101BD00051F8043BD51A17D1B4B950F8042BCCFAFC
:101BE00052F451F8043BD51A0ED16CB950F8042BBD
:101BF000CCFA52F451F8043BD51A05D1002CDAD0B6
:101C000030BC4FF00000704729BAB1FA81F111F0F1
:101C10001801D1F120008440F2D1CA40CB4012F02B
:101C2000FF0213F0FF0330BCD01A70472DE9FF4FBD
:101C30001F464FF03C0987B04FF00042DDE9141019
:101C400001F10108DDF858A002EA4050039000209D
:101C500005908346054604460490B969461E0898D7
:101C60008847AAF1010A0290BAF1000F3BDD029801
:101C70002E2815D01021FFF7DAF900282EDB4FF0BF
:101C8000010B0599014317D0B9F1000F0BDB4A4650
:101C9000C117FFF7FBFE05430C43A9F1040905E05A
:101CA000012004900BE008B145F0010501200590EA
:101CB000049820B9361D02E0049800B1361FB969B6
:101CC000089808F101088847BBF1000FAAF1010A42
:101CD0000290C9D00999C1F80080C5E70298702820
:101CE00008D0502806D0F96908988847BBF1000F42
:101CF00014D04FE0002002900120BBF1000F0490AF
:101D000009D0B969089808F101088847AAF10109C2
:101D1000B9F1000F07DCF969089888476FF00100F6
:101D20000BB0BDE8F08F2B2804D02D280CD14FF03C
:101D3000FF300490B969089808F101088847A9F1B3
:101D40000109B9F1000FE6DD411CE4D00A21FFF7DB
:101D50006EF90028DFDB029908F1010801EB81012F
:101D600000EB41000290B969089888470A21FFF703
:101D70005EF9099AA9F10109B9F1000FC2F80080D2
:101D800001DD0028E7DAF969089888470499029884
:101D900000FB016655EA040004D004F0404109004C
:101DA00002D006E0039898E0A40044EA9574AD00E0
:101DB000B61E04F00041080002D16D196441761E80
:101DC000159810F0240F03D04FF00B095C4803E086
:101DD0004FF028096FF07D008246564507DAAAEBDE
:101DE00006018944B9F1410F01DD4FF0410901209D
:101DF0000021A9F10102FFF749FE024628400B46E7
:101E00002140084301D0012100E00021501E029131
:101E100043F1FF3128402140084301D0012000E078
:101E200000200299834651EA0B014FD00021084659
:101E30004FF00000039900F4400039B100EB80003E
:101E40004FF4400100EBD07001EA600080150128DA
:101E500002DD4FF0FF3000E013D0401C36D0029876
:101E600060B3BBF1000F0CD14A4601200021FFF7FF
:101E70000DFE28402140084301D0012000E0002051
:101E8000E0B101204A460021FFF700FE0346401959
:101E90000A4661412D1A8C4111D3B9F1400F09DD79
:101EA000159810F0240F02D0AAF1340603E0AAF12D
:101EB000170600E0761C00254FF0004406E05B1E8C
:101EC00042F1FF3220EA030521EA0204CAF10100CF
:101ED000B04206DA1B4903980843019000200090A5
:101EE0000EE0039AC4F3D321E80A0A43164940EAF4
:101EF00044500A433146CDE90002684619F068FAB9
:101F0000159810F0240F0BD01598C00715D138681C
:101F1000DDE90012031D3B600068C0E900120CE01F
:101F200002A8694619F0A0F91598C00705D13868CC
:101F3000029A011D3960006802604046F0E6000028
:101F400002FCFFFF0000F07F0000F03F2DE9FF4F93
:101F500092461D4685B04FF00041DDE9124BDDE9A8
:101F600014727F1E01EA4B50414940F0FF4940EA9C
:101F70000108002122F020004928049102D04E28B7
:101F800028D04CE03BA0012607C88DE80700A969CE
:101F90000698641C88477F1E014606D41DF806007B
:101FA00018B121F0200181420BD0E96906988847D9
:101FB000032E34D0082E32D06FF0010009B0BDE8F6
:101FC000F08F761C032E01D0082EE0D1601CCAF8D9
:101FD0000000DCE7A9690698641C88477F1E2AD4A4
:101FE00020F02000412826D1A9690698641C884762
:101FF0007F1E20D420F020004E281CD1A96906980D
:10200000641C88477F1E48F4002849F48009CAF8F8
:10201000004001D4282806D0E969069888475FEA7D
:10202000CB7012D022E0A9690698641C88477F1EF5
:1020300001D4002803DAE96906988847BCE7292813
:10204000F1D1641CCAF80040E9E71BF0240F07D067
:1020500028680499031D2B600068C0E9001805E09A
:102060002868021D2A600068C0F800902046A5E795
:102070000000F07F494E46494E4954590000000087
:1020800001491820ABBEFEE72600020070470000A1
:1020900080B584B003900398006842F20001C4F256
:1020A0000201884209D0FFE70398006842F200115C
:1020B000C4F20201884209D1FFE742F20830C4F2BB
:1020C0000200006810F4403F09D129E046F20830D0
:1020D000C5F60200006810F4403F21D0FFE70AF087
:1020E00023FF0290039840680190B0F5803F0AD02A
:1020F000FFE70198B0F5003F05D0FFE70198B0F584
:10210000403F07D00AE00398C1880298B0FBF1F085
:10211000029004E002988008029000E0FFE75FE090
:102120004FF40020002108F04FFF02900398406810
:102130000090B0F5802F32D0FFE70098B0F5002F67
:102140002DD0FFE70098B0F5402F28D0FFE700988A
:10215000B0F5801F23D0FFE70098B0F5A01F1ED078
:10216000FFE70098B0F5C01F19D0FFE70098B0F561
:10217000E01F1FD0FFE70098B0F5001F1ED0FFE75B
:102180000098B0F5101F1DD0FFE70098B0F5201F94
:102190001CD0FFE70098B0F5301F1BD01EE003985D
:1021A00041686FF0010000EA51410298B0FBF1F084
:1021B000029014E002980009029010E00298400991
:1021C00002900CE002988009029008E00298C00991
:1021D000029004E00298000A029000E0FFE7FFE7A7
:1021E000029840080290029845F61061C0F25F0123
:1021F000884209D8FFE703980068806820F440709F
:102200000399096888602EE002984BF62041C0F2DD
:10221000BE0188420AD8FFE7039800688068012160
:1022200061F309200399096888601BE0029847F66A
:102230004001C0F27D1188420AD8FFE70398006888
:102240008068022161F3092003990968886008E029
:1022500003980068806840F44070039909688860BA
:10226000FFE7FFE7FFE704B080BD000000000000CB
:1022700080B582B001900198806B00900098006E4C
:1022800010F0500F4AD1FFE70099086E40F400703B
:1022900008660098006800680007002821D5FFE75D
:1022A000009800680EF040FAD0B1FFE7009800688F
:1022B000C0688004002812D4FFE70099086E20F45B
:1022C000807008660098006EC004002806D4FFE7FE
:1022D0000099086E40F001000866FFE7FFE7FFE79E
:1022E00018E000980068C068800790B9FFE700997F
:1022F000086E20F4807008660098006EC004002804
:1023000006D4FFE70099086E40F001000866FFE779
:10231000FFE7FFE7009802F043FF10E00098006E2F
:10232000C006002804D5FFE7009802F041FF05E051
:102330000098806DC16C01988847FFE7FFE702B005
:1023400080BD00000000000080B582B001900198BF
:10235000806B00900099086E40F04000086600997C
:10236000486E40F004004866009802F021FF02B079
:1023700080BD00000000000080B582B0019001988F
:10238000806B0090009802F00FFF02B080BD00004B
:1023900080B584B00290029800680EF095F9009024
:1023A000029800680EF098F900284BD0FFE70098DB
:1023B000002847D1FFE702980068806800F00D0010
:1023C000012809D1FFE7029800680EF0FDF8029895
:1023D0000168032008600DE00299086E40F01000CB
:1023E00008660299486E40F00100486601208DF8A9
:1023F0000F002BE008F09CF80190FFE702980068BE
:102400008068C007E8B1FFE708F092F80199401A28
:10241000032815D3FFE7029800688068C00770B1F1
:10242000FFE70299086E40F0100008660299486EB6
:1024300040F00100486601208DF80F0006E0FFE73C
:10244000DCE7FFE700208DF80F00FFE79DF80F00A5
:1024500004B080BD0000000080B586B004900498F0
:1024600000680EF039F9002840F09280FFE70498E8
:10247000006880683F21C8F2000108420ED0FFE7E3
:102480000499086E40F0100008660499486E40F008
:102490000100486601208DF817007DE0049800686F
:1024A0000EF0AEF808F044F803900498016801209B
:1024B00042F20002C4F20202914201900CD0FFE706
:1024C000049800684DF60071CBF6FD710844B0FA2F
:1024D00080F040090190FFE70198C10746F2003003
:1024E000C5F6020000291CBF42F20030C4F202000F
:1024F0000EF0BAF802900498006842F20011C4F29B
:102500000201884206D1FFE742F20000C4F2020055
:10251000009003E0049800680090FFE70098049999
:102520000968884203D0FFE7029880BBFFE7FFE716
:10253000049800680068C00740BBFFE70498006883
:102540000EF0CAF828B9FFE7049800680EF058F8B2
:10255000FFE707F0EDFF0399401A032815D3FFE7C3
:10256000049800680068C00770B9FFE70499086E16
:1025700040F0100008660499486E40F0010048667B
:1025800001208DF8170007E0FFE7D1E7FFE7FFE73D
:1025900000208DF81700FFE79DF8170006B080BDFA
:1025A00080B540F60000C5F602000122114607F092
:1025B000A7FF80BD0000000080B540F60000C5F612
:1025C00002000121002207F09BFF80BD00000000F7
:1025D000704700000000000080B540F60000C5F61E
:1025E00002000821012207F08BFF80BD00000000DF
:1025F00080B540F60000C5F602000821002207F071
:102600007FFF80BD00000000704700000000000058
:1026100080B582B0ADF80600FFE7BDF80600411EA8
:10262000ADF8061028B1FFE74FF47A7000F004F817
:10263000F3E702B080BD000086B0ADF816000020C0
:10264000049003900290019000904EF21400CEF29C
:10265000000000680090BDF81600C0EB00104001BB
:1026600004904EF21800CEF2000000680390FFE7DD
:102670004EF21800CEF20000006802900298039912
:1026800088421ED0FFE702980399884207D2FFE7ED
:1026900003980299411A01980844019008E00098B3
:1026A0000299401A03990144019808440190FFE7F8
:1026B0000298039001980499884201D3FFE701E052
:1026C000FFE7D5E706B0704780B582B000208DF8EF
:1026D0000700FFF77DFFFFF797FF16F0E9FA0146C5
:1026E0009DF8070008438DF8070016F0A9FB014686
:1026F0009DF8070008438DF807009DF8070002B019
:1027000080BD00000000000080B582B08DF8070099
:1027100000919DF8070040F0800000F009F8552076
:1027200000F006F80099087002B080BD00000000BB
:1027300080B582B08DF8070069464FF47A70086062
:1027400040F67C50C2F200400DF107010DF1060287
:1027500001230BF09DFC9DF8060002B080BD000037
:1027600080B582B08DF807008DF806109DF807003F
:10277000FFF7DEFF9DF80600FFF7DAFF02B080BD2D
:10278000FFE7FEE70000000041F63801C4F2000157
:10279000002008607047000041F63801C4F20001D3
:1027A0004FF47A700860704780B540F2FC60C2F266
:1027B0000040006801280ADBFFE7FFF7EDFF40F269
:1027C000FC61C2F2004108680138086002E0FFF7CE
:1027D000DBFFFFE780BD000080B584B00290029867
:1027E0004BF62221C0F6010140F6BC02C2F20042C3
:1027F0000192FDF797FE01980078732803D1FFE757
:102800000120039002E000200390FFE7039804B04A
:1028100080BD00000000000083B00290ADF80610FB
:1028200000208DF80500ADF80200FFE7BDF80200BA
:10283000BDF80610884210DAFFE70298BDF80210D2
:10284000415C9DF8050008448DF80500FFE7BDF8E0
:1028500002000130ADF80200E8E79DF8050003B082
:10286000704700000000000080B590B08DED0F0AA9
:10287000CDED0E0A8DED0D1A40F26800C2F2004057
:1028800090ED350A9DED0E1A30EE410AB7EEC00A02
:102890008DED080B9DED080B9FED351B20EE010B18
:1028A0008DED060B9DED082B9FED330B30EE420BAB
:1028B00020EE010B8DED040B9DED060B18F03CF89E
:1028C0008DED020B9DED040B18F036F88DED000B2D
:1028D0009DED0F0AB7EEC00A9DED021B20EE010B25
:1028E000B7EEC00B8DED0C0A9DED0F0AB7EEC00AD6
:1028F0009DED001B20EE010BB7EEC00B8DED0B0A1A
:102900009DED0C0A9DED0D1A30EE410A9DED0B1A5E
:1029100030EE410A0FF074FD9DED0C0AB1EE400A55
:102920009DED0D1A30EE410A9DED0B1A30EE410A75
:102930000FF07EFD9DED0C0AB1EE400A9DED0D1AE3
:1029400030EE410A9DED0B1A30EE010A0FF088FDC2
:102950009DED0C0A9DED0D1A30EE410A9DED0B1A0E
:1029600030EE010A0FF094FD10B080BD00BF00BF33
:102970001839359D46DF913F000000000080564029
:1029800080B540F64410C2F2004004F069F880BD02
:1029900080B540F62430C2F2004004F061F880BDFA
:1029A00080B540F6AC20C2F2004004F059F880BD7A
:1029B00080B540F6BC10C2F2004004F051F880BD72
:1029C00080B540F63420C2F2004004F049F880BDE2
:1029D00083B002900298016801201022C4F2020222
:1029E0009142009000F0A380FFE702980168012067
:1029F0002822C4F202029142009000F09880FFE782
:102A00000298016801204022C4F202029142009023
:102A100000F08D80FFE70298016801205822C4F27F
:102A200002029142009000F08280FFE70298016864
:102A300001207022C4F202029142009077D0FFE799
:102A40000298016801208822C4F20202914200909B
:102A50006DD0FFE7029801680120A022C4F20202B3
:102A60009142009063D0FFE7029801680120B822EC
:102A7000C4F202029142009059D0FFE70298016827
:102A8000012040F21042C4F20202914200904ED066
:102A9000FFE702980168012040F22842C4F20202D6
:102AA0009142009043D0FFE702980168012040F274
:102AB0004042C4F202029142009038D0FFE70298EF
:102AC0000168012040F25842C4F202029142009093
:102AD0002DD0FFE702980168012040F27042C4F255
:102AE00002029142009022D0FFE702980168012083
:102AF00040F28842C4F202029142009017D0FFE7F0
:102B000002980168012040F2A042C4F20202914200
:102B100000900CD0FFE7029800684FF64831CBF6E2
:102B2000FD710844B0FA80F040090090FFE700987A
:102B3000C00740B3FFE70298007810384AF6AB218F
:102B4000CAF6AA21A0FB011000090190019800F02B
:102B500007014BF6E810C0F60100405C0299C86519
:102B60000198042807D3FFE702990868042262F35A
:102B70000900886506E00299086840F2FF32904338
:102B80008865FFE705E00299086820F0FF00886586
:102B9000FFE70298806D03B070470000000000005E
:102BA00084B00390039800680190039801680120A5
:102BB00045F20842C5F60202914200904ED0FFE76E
:102BC00003980168012045F21C42C5F602029142B9
:102BD000009043D0FFE703980168012045F230429E
:102BE000C5F602029142009038D0FFE703980168D1
:102BF000012045F24442C5F60202914200902DD0D8
:102C0000FFE703980168012045F25842C5F6020229
:102C10009142009022D0FFE703980168012045F21D
:102C20006C42C5F602029142009017D0FFE703986C
:102C30000168012045F28042C5F6020291420090EF
:102C40000CD0FFE7039800684AF66C31CAF2FD71B8
:102C50000844B0FA80F040090090FFE70098C007F0
:102C600010B3FFE70398007808384CF6CD41CCF656
:102C7000CC41A0FB011000090290029945F600002A
:102C8000C5F6020000EB810003990866039945F63A
:102C90008000C5F602004866029800F01F0101207E
:102CA00088400399886635E00398007810384AF622
:102CB000AB21CAF6AA21A0FB0110000902900198DD
:102CC00040F2B841C4F2020188420CD8FFE70198F3
:102CD00040F21041C4F20201884204D3FFE7029897
:102CE00008300290FFE7029940F60000C4F20200AB
:102CF00000EB810003990866039940F68000C4F256
:102D000002004866029800F01F01012088400399E4
:102D10008866FFE704B0704783B00290029800799C
:102D200001900198002800F08A80FFE701980828A8
:102D300000F28580FFE702980168012045F2084211
:102D4000C5F60202914200904ED0FFE7029801685A
:102D5000012045F21C42C5F602029142009043D088
:102D6000FFE702980168012045F23042C5F60202F1
:102D70009142009038D0FFE702980168012045F2A7
:102D80004442C5F60202914200902DD0FFE702981E
:102D90000168012045F25842C5F6020291420090B6
:102DA00022D0FFE702980168012045F26C42C5F687
:102DB00002029142009017D0FFE7029801680120BB
:102DC00045F28042C5F60202914200900CD0FFE726
:102DD000029800684AF66C31CAF2FD710844B0FAF4
:102DE00080F040090090FFE70098C00780B1FFE73E
:102DF000019945F6FC00C5F6020000EB810002993E
:102E0000C866029945F64010C5F6020008670FE053
:102E1000019940F6FC00C4F2020000EB8100029927
:102E2000C866029940F64010C4F202000867FFE746
:102E30000198411E0120884002994867FFE703B0CE
:102E4000704700000000000085B0049000208DF85D
:102E50000F000498806918BBFFE70498806A02900D
:102E600003281BD80299DFE801F0020D021804982C
:102E700090F82F00C00720B1FFE701208DF80F0068
:102E8000FFE70CE00498C06AB0F1C07F04D1FFE70F
:102E900001208DF80F00FFE701E000E0FFE747E0C9
:102EA00004988069B0F5005F26D1FFE70498806A36
:102EB000019003281ED80199DFE801F002060211F3
:102EC00001208DF80F0016E0049890F82F00C0073D
:102ED00020B1FFE701208DF80F00FFE70BE0049819
:102EE000C06AB0F1C07F04D1FFE701208DF80F0068
:102EF000FFE700E0FFE71AE00498806A00900328EB
:102F000004D3FFE70098032804D00EE001208DF8D9
:102F10000F000BE0049890F82F00C00720B1FFE7E6
:102F200001208DF80F00FFE700E0FFE7FFE7FFE774
:102F30009DF80F0005B0704789B008900791069280
:102F400005930898806D04900898806D0390089808
:102F5000016801201022C4F202029142029000F0A6
:102F60000381FFE70898016801202822C4F20202C9
:102F70009142029000F0F880FFE708980168012074
:102F80004022C4F202029142029000F0ED80FFE77D
:102F90000898016801205822C4F20202914202906E
:102FA00000F0E280FFE70898016801207022C4F277
:102FB00002029142029000F0D780FFE70898016872
:102FC00001208822C4F202029142029000F0CC80DB
:102FD000FFE7089801680120A022C4F20202914292
:102FE000029000F0C180FFE7089801680120B82234
:102FF000C4F202029142029000F0B680FFE7089806
:103000000168012040F21042C4F202029142029093
:1030100000F0AA80FFE708980168012040F22842EA
:10302000C4F202029142029000F09E80FFE70898ED
:103030000168012040F24042C4F202029142029033
:1030400000F09280FFE708980168012040F25842A2
:10305000C4F202029142029000F08680FFE70898D5
:103060000168012040F27042C4F2020291420290D3
:103070007AD0FFE708980168012040F28842C4F244
:103080000202914202906FD0FFE708980168012088
:1030900040F2A042C4F202029142029064D0FFE7E3
:1030A00008980168012040F2B842C4F2020291423D
:1030B000029059D0FFE708980168012045F20842C4
:1030C000C5F60202914202904ED0FFE708980168CF
:1030D000012045F21C42C5F602029142029043D003
:1030E000FFE708980168012045F23042C5F6020268
:1030F0009142029038D0FFE708980168012045F21C
:103100004442C5F60202914202902DD0FFE7089892
:103110000168012045F25842C5F602029142029030
:1031200022D0FFE708980168012045F26C42C5F6FD
:1031300002029142029017D0FFE70898016801202F
:1031400045F28042C5F60202914202900CD0FFE7A0
:10315000089800684AF66C31CAF2FD710844B0FA6A
:1031600080F040090290FFE70298C00770B1FFE7C6
:103170000898416E806E48600898C06E28B1FFE7DD
:103180000898016F406F4860FFE7FFE70898016803
:1031900001201022C4F202029142019000F0A380AB
:1031A000FFE70898016801202822C4F20202914238
:1031B000019000F09880FFE7089801680120402204
:1031C000C4F202029142019000F08D80FFE708985E
:1031D000016801205822C4F202029142019000F0DD
:1031E0008280FFE70898016801207022C4F2020281
:1031F0009142019077D0FFE708980168012088226A
:10320000C4F20202914201906DD0FFE70898016874
:103210000120A022C4F202029142019063D0FFE794
:10322000089801680120B822C4F20202914201907C
:1032300059D0FFE708980168012040F21042C4F21B
:103240000202914201904ED0FFE7089801680120E8
:1032500040F22842C4F202029142019043D0FFE7BB
:1032600008980168012040F24042C4F202029142F3
:10327000019038D0FFE708980168012040F25842D9
:10328000C4F20202914201902DD0FFE70898016834
:10329000012040F27042C4F202029142019022D019
:1032A000FFE708980168012040F28842C4F2020258
:1032B0009142019017D0FFE708980168012040F281
:1032C000A042C4F20202914201900CD0FFE708989C
:1032D00000684FF64831CBF6FD710844B0FA80F033
:1032E00040090190FFE70198C00750B3FFE7089835
:1032F000C06D00F01F013F20884004998860089845
:103300000168086820F48020086005980899096819
:10331000486008988068402809D1FFE70698089916
:1033200009688860079808990968C86008E00798E4
:10333000089909688860069808990968C860FFE7D5
:1033400082E008980168012045F20842C5F60202B1
:10335000914200904ED0FFE708980168012045F2A5
:103360001C42C5F602029142009043D0FFE7089844
:103370000168012045F23042C5F6020291420090F8
:1033800038D0FFE708980168012045F24442C5F6AD
:103390000202914200902DD0FFE7089801680120B9
:1033A00045F25842C5F602029142009022D0FFE752
:1033B00008980168012045F26C42C5F6020291426C
:1033C000009017D0FFE708980168012045F280427D
:1033D000C5F60202914200900CD0FFE70898006801
:1033E0004AF66C31CAF2FD710844B0FA80F0400927
:1033F0000090FFE70098C00720B3FFE70898C06D72
:1034000000F01F0101208840039948600598089941
:103410000968486008988068402809D1FFE7069845
:10342000089909688860079808990968C86008E0E1
:103430000798089909688860069808990968C8601B
:10344000FFE700E0FFE7FFE709B07047000000007A
:10345000704700000000000081B00090FFE7009876
:10346000411E009108B1FFE7F9E701B07047000085
:1034700081B0EFF3108072B60090FFE7FEE7000026
:1034800080B540F69C30C2F2004005F0ADFF80BD33
:1034900080B540F69C30C2F2004005F0A5FF80BD2B
:1034A00080B540F63C40C2F2004005F09DFF80BD73
:1034B00080B540F63C40C2F2004005F095FF80BD6B
:1034C00084B002900298406B009002980068D0F897
:1034D00084004FF6FC718843009940EA810002990C
:1034E0000968C1F8840002980068D0F8840020F4CC
:1034F0007F00029A1168926B40EA0240C1F8840092
:103500000298816B00980844009002980068D0F8F7
:1035100088006FF38F00009940EA810002990968E2
:10352000C1F8880002980068D0F8880020F4FE00F6
:10353000029A1168D26B40EA0240C1F888000298F2
:10354000C16B009800EB4100009002980068D0F831
:10355000A0006FF38F00009940EA8100029909688A
:10356000C1F8A00002980068D0F8A00020F4FE0086
:10357000029A1168126C40EA0240C1F8A000029958
:10358000086C496C009A00FB0120009002980068CA
:10359000D0F8B0006FF38F00009940EA81000299E3
:1035A0000968C1F8B00002980068D0F8B00020F4B3
:1035B000FE00029A1168926C40EA0240C1F8B00025
:1035C0000299886CC96C009A00FB01200090029857
:1035D0000068D0F8AC006FF38F00009940EA8100DA
:1035E00002990968C1F8AC000299086D496D009A0A
:1035F00000FB0120009002980068D0F8F0006FF303
:103600008F00009940EA810002990968C1F8F00032
:1036100002980068D0F8F00020F47C10029A11683B
:10362000926D40EA0240C1F8F0000298816D009866
:1036300000EB4100009002980068D0F8C0006FF3E2
:103640008F00009940EA810002990968C1F8C00022
:1036500002980068D0F8C00020F47C10029A11682B
:10366000D26D40EA0240C1F8C00002980068D0F86C
:10367000C00020F07C50029A1168126E40EA02608D
:10368000C1F8C00002994A6B4AF60040C4F200003B
:1036900000EB8200C86602998A6BC86E00EB82005C
:1036A00008670299CA6B086F00EBC200486702996D
:1036B0000A6C4B6C486F5A4300EB82008867029992
:1036C0008A6CCB6C886F5A4300EB8200C867029902
:1036D0000A6D4B6DC86F5A4300EB8200C1F8800041
:1036E00002998A6DD1F8800000EBC200C1F8840015
:1036F0000299CA6D8B6ED1F884005A4300EB8200A8
:10370000C1F8880002990A6E8B6ED1F888005A437E
:1037100000EB8200C1F890000298D0F890004DF2C2
:10372000FD31C4F2000188420FD3FFE70299D1F8BE
:103730009C0040F02000C1F89C000299032081F811
:10374000980001208DF80F0017E00298C06E0190DC
:10375000FFE701980299D1F89010884208D2FFE75C
:10376000019900200860FFE7019804300190F0E71C
:10377000FFE700208DF80F00FFE79DF80F0004B071
:10378000704700000000000088B007900691059285
:1037900004930698406848B9FFE706980168826874
:1037A0000069104340EA8140039009E006980168EF
:1037B000826800691043084340F080400390FFE7AF
:1037C0000698D0F820C0C16842698369C06940EAA0
:1037D0000C601843104340EA014002900798826E43
:1037E000D0F884000499514300EB810001900398C4
:1037F00001990860019804300190029801990860CD
:1038000001980430019000200090FFE7009806998D
:10381000CA684BF6D811C0F60101895C88420DD206
:10382000FFE7059800994058019908600198043015
:103830000190FFE7009804300090E7E708B0704778
:1038400080B584B040F20070C2F2004000780028D9
:1038500040F09880FFE700200290FFE702980228DE
:1038600000F38980FFE7029940F2B030C2F20040D5
:10387000084490F85800012821D1FFE7029840F24F
:103880004C43C2F20043342200FB02300021C4F258
:103890001831C0F8B410029800FB023C0020C4F2BA
:1038A0004530CCF8B800DDF808C00CFB023CCCF881
:1038B0004811029901FB0231C1F84C01FFE702995E
:1038C00040F2B030C2F20040084490F8580002289C
:1038D00020D1FFE7029840F24C43C2F20043342269
:1038E00000FB02304FF04041C0F8B410029800FBDA
:1038F000023C0020C4F24530CCF8B800DDF808C026
:103900000CFB023CCCF84811029901FB0231C1F8D2
:103910004C01FFE7029940F2B030C2F20040084487
:1039200090F85800032821D1FFE7029840F24C4359
:10393000C2F20043342200FB02300021CCF21B31E2
:10394000C0F8B410029800FB023C0020C4F24530DD
:10395000CCF8B800DDF808C00CFB023CCCF84811EC
:10396000029901FB0231C1F84C01FFE7FFE7029821
:103970000130029072E740F20071C2F20041012072
:103980000870C6E040F20070C2F2004000780128E2
:1039900040F0BE80FFE740F20170C2F200400078C4
:1039A00088B9FFE740F24C40C2F200409C300FF073
:1039B000BFFE38B1FFE740F20171C2F200410120C1
:1039C0000870FFE7A3E040F20170C2F20040007807
:1039D000012811D1FFE740F24C40C2F20040D03044
:1039E0000FF0A6FE38B1FFE740F20171C2F20041CC
:1039F00002200870FFE789E040F20170C2F2004047
:103A00000078022812D1FFE740F24C40C2F2004099
:103A100000F582700FF08CFE38B1FFE740F20171C3
:103A2000C2F2004103200870FFE76EE040F201702F
:103A3000C2F200400078032812D1FFE740F24C4068
:103A4000C2F2004000F59C700FF05EFD38B1FFE758
:103A500040F20171C2F2004104200870FFE753E018
:103A600040F20170C2F200400078042812D1FFE752
:103A700040F24C40C2F2004000F5B6700FF044FD39
:103A800038B1FFE740F20171C2F200410520087031
:103A9000FFE738E040F20170C2F2004000780528EC
:103AA00030D1FFE740F24C40C2F2004000F5D07048
:103AB0000FF02AFD28B3FFE700200190FFE70198EF
:103AC000052810DCFFE7019840F24C42C2F20042A8
:103AD000342100FB0121002081F8C400FFE7019898
:103AE00001300190EBE740F20171C2F20041002089
:103AF000087040F20071C2F200410870012003908A
:103B00000AE0FFE7FFE7FFE7FFE7FFE7FFE7FFE781
:103B1000FFE700200390FFE7039804B080BD00009A
:103B200080B582B040F20270C2F2004000780028F6
:103B300040F09880FFE700200090FFE700980228FF
:103B400000F38980FFE7009940F2B030C2F20040F4
:103B5000084490F85800012821D1FFE7009840F26E
:103B60004C43C2F20043342200FB02300021C4F275
:103B70001831C0F8B410009800FB023C0020C4F2D9
:103B80004530CCF8B800DDF800C00CFB023CCCF8A6
:103B90004811009901FB0231C1F84C01FFE700997F
:103BA00040F2B030C2F20040084490F858000228B9
:103BB00020D1FFE7009840F24C43C2F20043342288
:103BC00000FB02304FF04041C0F8B410009800FBF9
:103BD000023C0020C4F24530CCF8B800DDF800C04B
:103BE0000CFB023CCCF84811009901FB0231C1F8F2
:103BF0004C01FFE7009940F2B030C2F200400844A7
:103C000090F85800032821D1FFE7009840F24C4378
:103C1000C2F20043342200FB02300021CCF21B31FF
:103C2000C0F8B410009800FB023C0020C4F24530FC
:103C3000CCF8B800DDF800C00CFB023CCCF8481111
:103C4000009901FB0231C1F84C01FFE7FFE7009842
:103C50000130009072E740F20271C2F2004101208F
:103C6000087062E040F20270C2F200400078012861
:103C70005AD1FFE740F20370C2F20040007888B9E1
:103C8000FFE740F24C40C2F200409C300FF050FD84
:103C900038B1FFE740F20371C2F200410120087021
:103CA000FFE740E040F20370C2F2004000780128D4
:103CB00011D1FFE740F24C40C2F20040D0300FF08B
:103CC00037FD38B1FFE740F20371C2F20041022034
:103CD0000870FFE726E040F20370C2F2004000786F
:103CE000022812D1FFE740F24C40C2F2004000F53A
:103CF00082700FF01DFD38B1FFE740F20371C2F290
:103D0000004103200870FFE70BE040F20370C2F2AD
:103D100000400078032803D1FFE70120019007E06D
:103D2000FFE7FFE7FFE7FFE7FFE700200190FFE77E
:103D3000019802B080BD000080B584B040F20470EC
:103D4000C2F200400078002840F0A880FFE740F26F
:103D50004C41C2F20041002081F8C40081F8F80013
:103D600081F82C0181F8600181F8940181F8C80183
:103D70000290FFE70298022800F38980FFE702998A
:103D800040F2B030C2F20040084490F858000128D8
:103D900021D1FFE7029840F24C43C2F200433422A3
:103DA00000FB02300021C4F21831C0F8B4100298B0
:103DB00000FB023C0020C4F24530CCF8B800DDF82E
:103DC00008C00CFB023CCCF84811029901FB0231FF
:103DD000C1F84C01FFE7029940F2B030C2F2004056
:103DE000084490F85800022820D1FFE7029840F2DA
:103DF0004C43C2F20043342200FB02304FF04041FA
:103E0000C0F8B410029800FB023C0020C4F2453018
:103E1000CCF8B800DDF808C00CFB023CCCF8481127
:103E2000029901FB0231C1F84C01FFE7029940F20F
:103E3000B030C2F20040084490F85800032821D165
:103E4000FFE7029840F24C43C2F20043342200FBE9
:103E500002300021CCF21B31C0F8B410029800FBF4
:103E6000023C0020C4F24530CCF8B800DDF808C0B0
:103E70000CFB023CCCF84811029901FB0231C1F85D
:103E80004C01FFE7FFE702980130029072E740F231
:103E90000471C2F2004101200870C6E040F20470D3
:103EA000C2F200400078012840F0BE80FFE740F2F7
:103EB0000570C2F20040007888B9FFE740F24C403C
:103EC000C2F200409C300FF033FC38B1FFE740F203
:103ED0000571C2F2004101200870FFE7A3E040F243
:103EE0000570C2F200400078012811D1FFE740F2CE
:103EF0004C40C2F20040D0300FF01AFC38B1FFE75E
:103F000040F20571C2F2004102200870FFE789E02B
:103F100040F20570C2F200400078022812D1FFE79B
:103F200040F24C40C2F2004000F582700FF000FCFD
:103F300038B1FFE740F20571C2F20041032008707A
:103F4000FFE76EE040F20570C2F2004000780328FF
:103F500012D1FFE740F24C40C2F2004000F59C70E5
:103F60000FF0D2FA38B1FFE740F20571C2F200411A
:103F700004200870FFE753E040F20570C2F20040F1
:103F80000078042812D1FFE740F24C40C2F2004012
:103F900000F5B6700FF0B8FA38B1FFE740F20571DE
:103FA000C2F2004105200870FFE738E040F20570DA
:103FB000C2F200400078052830D1FFE740F24C40C3
:103FC000C2F2004000F5D0700FF09EFA28B3FFE770
:103FD00000200190FFE70198052810DCFFE7019819
:103FE00040F24C42C2F20042342100FB0121002089
:103FF00081F8C400FFE7019801300190EBE740F23F
:104000000571C2F200410020087040F20471C2F252
:1040100000410870012003900AE0FFE7FFE7FFE797
:10402000FFE7FFE7FFE7FFE7FFE700200390FFE779
:10403000039804B080BD000080B582B040F20670E5
:10404000C2F200400078002840F0AF80FFE740F265
:104050004C41C2F20041002081F8C40081F8F80010
:1040600081F82C010090FFE70098022800F3968069
:10407000FFE7009940F2B030C2F20040084490F8E7
:10408000580001281ED1FFE7009840F24C42C2F2CE
:104090000042342100FB01230020C4F21830C3F891
:1040A000B400009800FB01230020C4F24530C3F89F
:1040B000B800009800FB01210020C4F27010C1F884
:1040C000A800FFE7009940F2B030C2F20040084477
:1040D00090F85800022828D1FFE7009840F24C429F
:1040E000C2F20042342100FB01204FF04043C0F8EF
:1040F000B430009800FB012C0020C4F24530CCF80D
:10410000B800DDF800C00CFB012CCCF84831009B56
:1041100003FB0123C3F84C01009800FB01210020A0
:10412000C4F27010C1F8A800FFE7009940F2B03067
:10413000C2F20040084490F85800032829D1FFE754
:10414000009840F24C42C2F20042342100FB0120B0
:104150000023CCF21B33C0F8B430009800FB012CD4
:104160000020C4F24530CCF8B800DDF800C00CFBEC
:10417000012CCCF84831009B03FB0123C3F84C0110
:10418000009800FB01210020C4F27010C1F8A800C3
:10419000FFE7FFE700980130009065E740F2067105
:1041A000C2F200410120087062E040F20670C2F2E3
:1041B0000040007801285AD1FFE740F20770C2F2B0
:1041C0000040007888B9FFE740F24C40C2F200405E
:1041D0009C300FF0ADFA38B1FFE740F20771C2F240
:1041E000004101200870FFE740E040F20770C2F292
:1041F00000400078012811D1FFE740F24C40C2F2A4
:104200000040D0300FF094FA38B1FFE740F2077168
:10421000C2F2004102200870FFE726E040F207707A
:10422000C2F200400078022812D1FFE740F24C4071
:10423000C2F2004000F582700FF07AFA38B1FFE761
:1042400040F20771C2F2004103200870FFE70BE063
:1042500040F20770C2F200400078032803D1FFE764
:104260000120019007E0FFE7FFE7FFE7FFE7FFE737
:1042700000200190FFE7019802B080BD000000001F
:1042800080B586B004900391029200200090FFE771
:10429000049890F85C00012804D1FFE702208DF813
:1042A00017005BE00499012081F85C00FFE7FFE75D
:1042B0000498FEF76DF88DF807009DF80700E0BB45
:1042C000FFE70498006E40F0020020F48850049943
:1042D0000866049800680399029A0CF0C9FBFFE78E
:1042E000049800680CF0E0F9F0B1FFE700980130A5
:1042F000009000984FF60001C2F2C351884212D3D9
:10430000FFE70498006E40F0100020F002000499CE
:104310000866FFE70499002081F85C00FFE70120B0
:104320008DF817001AE0DBE70498006E40F00100FA
:1043300020F002000499086605E00499086E40F038
:1043400010000866FFE7FFE70499002081F85C0091
:10435000FFE79DF807008DF81700FFE79DF81700AD
:1043600006B080BD0000000080B5AAB0289027915B
:1043700000208DF89B002798006808B1FFE7FFE751
:10438000FFE7289890F85C00012804D1FFE702209D
:104390008DF8A7002DE12899012081F85C00FFE746
:1043A000FFE70020219022902898006842F2000147
:1043B000C4F20201884206D1FFE742F20010C4F2C3
:1043C0000200099002E000200990FFE7099878B9FF
:1043D000FFE72899086E40F020000866FFE728995B
:1043E000002081F85C00FFE701208DF8A70000E1C4
:1043F00009980CF091F90890289800680CF08CF955
:10440000002840F0E280FFE70898002840F0DD80B7
:10441000FFE728980168012042F20002C4F202027C
:10442000914207900CD0FFE7289800684DF6007184
:10443000CBF6FD710844B0FA80F040090790FFE721
:104440000798C10746F20030C5F6020000291CBFDC
:1044500042F20030C4F2020025902798006800283C
:104460005ED0FFE72598806820F44040279949688E
:1044700008432599886028980168012042F20002CB
:10448000C4F20202914206900CD0FFE7289800681F
:104490004DF60071CBF6FD710844B0FA80F040098A
:1044A0000690FFE70698C10746F20030C5F6020005
:1044B00000291CBF42F20030C4F2020042F2003177
:1044C000C4F20201884212D1FFE742F20000C4F2B6
:1044D00002000CF009F9049042F20010C4F202004C
:1044E0000CF002F9014604980843059007E046F2F3
:1044F0000000C5F602000CF0F7F80590FFE70598FC
:1045000068B9FFE72598806840F61F718843279AAD
:10451000116892681143084325998860FFE753E0CA
:104520002599886820F44040886028980168012017
:1045300042F20002C4F20202914203900CD0FFE763
:10454000289800684DF60071CBF6FD710844B0FA6A
:1045500080F040090390FFE70398C10746F200305E
:10456000C5F6020000291CBF42F20030C4F202006E
:1045700042F20031C4F20201884212D1FFE742F256
:104580000000C4F202000CF0AFF8019042F20010FB
:10459000C4F202000CF0A8F801460198084302900A
:1045A00007E046F20000C5F602000CF09DF802900C
:1045B000FFE7029838B9FFE72599886840F61F722F
:1045C00090438860FFE7FFE708E02899086E40F015
:1045D0002000086601208DF89B00FFE7FFE728997F
:1045E000002081F85C00FFE79DF89B008DF8A70094
:1045F000FFE79DF8A7002AB080BD00000000000082
:1046000080B5CCB02A90299100208DF8A300259088
:104610002A9890F84400012801D1FFE70BE02A987E
:10462000006846F20001C5F60201884201D1FFE7A9
:1046300000E0FFE7FFE72998C0680021C4F2FF719E
:10464000884201D0FFE71EE02A98006842F200018C
:10465000C4F20201884201D1FFE7FFE72A9800680F
:1046600042F20011C4F20201884201D1FFE7FFE7E4
:104670002A98006846F20001C5F60201884201D17D
:10468000FFE7FFE7FFE7FFE72A9890F85C000128C3
:1046900005D1FFE702208DF8AF0000F07DBD2A991B
:1046A000012081F85C00FFE7FFE72A9800680CF022
:1046B0002BF8002840F05C85FFE72998C0780006B9
:1046C000002837D4FFE72A98006846F20001C5F6B3
:1046D000020188422DD0FFE729980068000330B915
:1046E000FFE729980068C0F38460229015E02998BC
:1046F000006890FAA0F04A904A9820B9FFE720207D
:104700008DF82F0105E04A98B0FA80F08DF82F015E
:10471000FFE79DF82F012290FFE7229800F01F018C
:10472000012000FA01F22A980168C8691043C861A3
:10473000FFE7FFE72A98006829990A6849680CF0A2
:1047400027F82A9800680BF0DFFF24902A98006869
:104750000BF0A2FF23902498002840F05A82FFE734
:104760002398002840F05582FFE72A980068299A8C
:10477000116892680CF03CF82A98006846F2000133
:10478000C5F6020188420BD1FFE7299840692A99B2
:104790000968C96801F0180189088840279038E045
:1047A00041F20000C5F60040006800F07040B0F132
:1047B000805F0BD1FFE7299840692A990968C96889
:1047C00001F01C014908884021901FE02A980068E8
:1047D000C068C00600280BD4FFE7299840692A99D1
:1047E0000968C96801F01C014908884020900AE066
:1047F000299840692A990968C96801F01001490897
:1048000088402090FFE720982190FFE7219827908B
:10481000FFE729980069042841D0FFE72A9800683B
:1048200029990A680969279B0CF06AF82A98006898
:1048300046F20001C5F60201884215D1FFE72A9829
:104840000068299A1169D2690CF0AAF82A980068C0
:10485000299A116992F82020013AB2FA82F252099B
:1048600052060CF07DF819E02A980068299A11691F
:1048700092F82120013AB2FA82F25209D2070CF0E2
:10488000AFF82A980068299A1169127E013AB2FAA3
:1048900082F25209D2020CF01FF8FFE7B8E12A9821
:1048A000006846F20001C5F60201884240F06681C8
:1048B000FFE72A98006800210BF0DEFE000348B9EC
:1048C000FFE72A98006800210BF0D6FEC0F3846051
:1048D0001F9018E02A98006800210BF0CDFE90FA96
:1048E000A0F04890489820B9FFE720208DF82701D4
:1048F00005E04898B0FA80F08DF82701FFE79DF8B1
:1049000027011F90FFE71F981E9029980068000359
:1049100030B9FFE729980068C0F384601D9015E066
:104920002998006890FAA0F04690469820B9FFE7D1
:1049300020208DF81F0105E04698B0FA80F08DF830
:104940001F01FFE79DF81F011D90FFE71E981D99AD
:10495000884207D1FFE72A980068002211460CF030
:104960005FF8FFE72A98006801210BF085FE00033D
:1049700048B9FFE72A98006801210BF07DFEC0F3DB
:1049800084601C9018E02A98006801210BF074FEE6
:1049900090FAA0F04490449820B9FFE720208DF8C9
:1049A000170105E04498B0FA80F08DF81701FFE791
:1049B0009DF817011C90FFE71C981B902998006830
:1049C000000330B9FFE729980068C0F384601A90AB
:1049D00015E02998006890FAA0F04290429820B91A
:1049E000FFE720208DF80F0105E04298B0FA80F033
:1049F0008DF80F01FFE79DF80F011A90FFE71B9854
:104A00001A99884207D1FFE72A98006801210022FD
:104A10000CF006F8FFE72A98006802210BF02CFE44
:104A2000000348B9FFE72A98006802210BF024FE32
:104A3000C0F38460199018E02A98006802210BF0F6
:104A40001BFE90FAA0F04090409820B9FFE720208C
:104A50008DF8070105E04098B0FA80F08DF8070165
:104A6000FFE79DF807011990FFE71998189029981A
:104A70000068000330B9FFE729980068C0F384603C
:104A8000179015E02998006890FAA0F03E903E98A3
:104A900020B9FFE720208DF8FF0005E03E98B0FA2E
:104AA00080F08DF8FF00FFE79DF8FF001790FFE70B
:104AB00018981799884207D1FFE72A9800680221C1
:104AC00000220BF0ADFFFFE72A98006803210BF0EE
:104AD000D3FD000348B9FFE72A98006803210BF0D3
:104AE000CBFDC0F38460169018E02A98006803217B
:104AF0000BF0C2FD90FAA0F03C903C9820B9FFE783
:104B000020208DF8F70005E03C98B0FA80F08DF891
:104B1000F700FFE79DF8F7001690FFE7169815904D
:104B200029980068000330B9FFE729980068C0F3AE
:104B30008460149015E02998006890FAA0F03A90EB
:104B40003A9820B9FFE720208DF8EF0005E03A9869
:104B5000B0FA80F08DF8EF00FFE79DF8EF001490B9
:104B6000FFE715981499884207D1FFE72A98006853
:104B7000032100220BF054FFFFE748E02A98006869
:104B8000006E00F0F84029990968B0EB816F07D1F9
:104B9000FFE72A980168086E20F000400866FFE7EA
:104BA0002A980068406E00F0F84029990968B0EB37
:104BB000816F07D1FFE72A980168486E20F0004016
:104BC0004866FFE72A980068806E00F0F84029994F
:104BD0000968B0EB816F07D1FFE72A980168886EFA
:104BE00020F000408866FFE72A980068C06E00F059
:104BF000F84029990968B0EB816F07D1FFE72A983F
:104C00000168C86E20F00040C866FFE7FFE7FFE7D5
:104C1000FFE72A9800680BF05FFD002840F0A782AC
:104C2000FFE72A980068299A1168D2680BF0FCFD0A
:104C30002998C0680021C4F2FF71884240F0338196
:104C4000FFE72A980068139029980068000330B99C
:104C5000FFE729980068C0F38460129015E0299856
:104C6000006890FAA0F03890389820B9FFE720202B
:104C70008DF8E70005E03898B0FA80F08DF8E7008D
:104C8000FFE79DF8E7001290FFE71298013000F06F
:104C90001F0009287DD8FFE729980068000330B974
:104CA000FFE729980068C0F38460119015E0299807
:104CB000006890FAA0F03690369820B9FFE72020DF
:104CC0008DF8DF0005E03698B0FA80F08DF8DF004F
:104CD000FFE79DF8DF001190FFE71198013000F029
:104CE0001F008006109029980068000330B9FFE784
:104CF00029980068C0F384600F9015E02998006837
:104D000090FAA0F03490349820B9FFE720208DF875
:104D1000D70005E03498B0FA80F08DF8D700FFE7AF
:104D20009DF8D7000F90FFE710980F99013101F01F
:104D30001F020121914008430E902998006800034A
:104D400030B9FFE729980068C0F384600D9015E042
:104D50002998006890FAA0F03290329820B9FFE7C5
:104D600020208DF8CF0005E03298B0FA80F08DF861
:104D7000CF00FFE79DF8CF000D90FFE70E980D994B
:104D8000013101F01F0101EB410140EA01500C909B
:104D900082E029980068000330B9FFE7299800688D
:104DA000C0F384600B9015E02998006890FAA0F099
:104DB0003090309820B9FFE720208DF8C70005E03B
:104DC0003098B0FA80F08DF8C700FFE79DF8C70073
:104DD0000B90FFE70B98013000F01F0080060A904F
:104DE00029980068000330B9FFE729980068C0F3EC
:104DF0008460099015E02998006890FAA0F02E9040
:104E00002E9820B9FFE720208DF8BF0005E02E98EE
:104E1000B0FA80F08DF8BF00FFE79DF8BF00099061
:104E2000FFE70A980999013101F01F020121914021
:104E30000843089029980068000330B9FFE72998D3
:104E40000068C0F38460079015E02998006890FA24
:104E5000A0F02C902C9820B9FFE720208DF8B70007
:104E600005E02C98B0FA80F08DF8B700FFE79DF8C8
:104E7000B7000790FFE708990798013000F01F007E
:104E800000EB40020020CFF6206000EB0250084308
:104E900040F000700C90FFE713980C99299A9268E3
:104EA0000BF0A6FCFFE72998C0780006002840F127
:104EB0005D81FFE72A980168012042F20002C4F2F6
:104EC0000202914206900CD0FFE72A9800684DF646
:104ED0000071CBF6FD710844B0FA80F040090690ED
:104EE000FFE70698C10746F20030C5F60200002928
:104EF0001CBF42F20030C4F202000BF0ADFB269062
:104F00002A9801684FF0010042F20002C4F2020246
:104F1000914205900CD0FFE72A9800684DF6007189
:104F2000CBF6FD710844B0FA80F040090590FFE728
:104F30000598C10746F20030C5F6020000291CBFE3
:104F400042F20030C4F2020042F20031C4F2020127
:104F5000884212D1FFE742F20000C4F202000BF0D7
:104F6000BBFB039042F20010C4F202000BF0B4FB52
:104F7000014603980843049007E046F20000C5F696
:104F800002000BF0A9FB0490FFE70498002840F012
:104F9000E380FFE7299800680021CCF25271884233
:104FA00055D1FFE79DF89A00000600284FD4FFE78F
:104FB0002A98006846F20001C5F60201884245D1F0
:104FC000FFE72A980168012042F20002C4F20202BF
:104FD000914202900CD0FFE72A9800684DF60071CC
:104FE000CBF6FD710844B0FA80F040090290FFE76B
:104FF0000298C10746F20030C5F6020000291CBF26
:1050000042F20030C4F20200269941F400010BF094
:1050100053FC40F24440C2F2004000684FEA901056
:1050200042F66351C0F23E51A0FB01104FEA9011CD
:105030004FF0020000EB41002590FFE7259820B1DA
:10504000FFE7259801382590F8E7FFE783E02998E6
:1050500000680021CCF22131884238D1FFE79DF869
:105060009B00C00798BBFFE72A98006846F2000142
:10507000C5F60201884229D1FFE72A98016801207C
:1050800042F20002C4F20202914201900CD0FFE70A
:105090002A9800684DF60071CBF6FD710844B0FA0D
:1050A00080F040090190FFE70198C10746F2003007
:1050B000C5F6020000291CBF42F20030C4F2020013
:1050C000269941F080710BF0F7FBFFE742E0299849
:1050D00000680021CCF68431884239D1FFE79DF881
:1050E0009A004006002833D4FFE72A98006846F269
:1050F0000001C5F60201884229D1FFE72A9801681C
:10510000012042F20002C4F20202914200900CD04F
:10511000FFE72A9800684DF60071CBF6FD71084450
:10512000B0FA80F040090090FFE70098C10746F20E
:105130000030C5F6020000291CBF42F20030C4F264
:105140000200269941F480010BF0B6FBFFE700E076
:10515000FFE7FFE7FFE708E02A99086E40F020002C
:10516000086601208DF8A300FFE7FFE7FFE708E0EE
:105170002A99086E40F02000086601208DF8A300EF
:10518000FFE7FFE72A99002081F85C00FFE79DF820
:10519000A3008DF8AF00FFE79DF8AF004CB080BDD5
:1051A00081B0009001B0704781B0009001B07047AD
:1051B00081B0009001B0704710B590B00E90002003
:1051C0008DF837000A900E9820B9FFE701208DF87E
:1051D0003F006EE20E98006940B1FFE70E9890F82C
:1051E0002000012801D1FFE7FFE7FFE70E98006EDE
:1051F00050B9FFE70E9800F063FA0E990020486658
:105200000E9981F85C00FFE70E9800680BF054FAE5
:1052100028B1FFE70E9800680BF0E6F9FFE70E985B
:1052200000680BF069FAE8B9FFE70E9800680BF028
:1052300003FA40F24440C2F200400068800942F69E
:105240006351C0F23E51A0FB0101012000EB91101F
:105250000A90FFE70A9820B1FFE70A9801380A9000
:10526000F8E7FFE70E9800680BF046FA70B9FFE721
:105270000E99086E40F0100008660E99486E40F0D6
:105280000100486601208DF83700FFE70E9800689E
:105290000BF03AFA0B900E98006EC006002800F151
:1052A000FA81FFE70B98002840F0F581FFE70E98A0
:1052B000006E40F0020020F480700E9908660E988F
:1052C00000680BF009FA002870D1FFE70E9801681A
:1052D000012042F20002C4F20202914207900CD077
:1052E000FFE70E9800684DF60071CBF6FD7108449B
:1052F000B0FA80F040090790FFE70798C10746F22F
:105300000030C5F6020000291CBF42F20030C4F292
:10531000020042F20031C4F20201884212D1FFE7DA
:1053200042F20000C4F202000BF0D6F9059042F2FE
:105330000010C4F202000BF0CFF9014605980843B3
:10534000069007E046F20000C5F602000BF0C4F933
:105350000690FFE7069840BBFFE70E980168012022
:1053600042F20002C4F20202914204900CD0FFE724
:105370000E9800684DF60071CBF6FD710844B0FA46
:1053800080F040090490FFE70498C10746F200301E
:10539000C5F6020000291CBF42F20030C4F2020030
:1053A0000E9949680BF078FAFFE7FFE70E9800685E
:1053B00046F20001C5F6020188423AD1FFE70E9A93
:1053C000517ED06B40EA41319068D268114303911D
:1053D000082803D1FFE7002002901DE00E988068A6
:1053E0000C2803D1FFE70420019012E00E9880689A
:1053F0001C2803D1FFE70820009007E00E98816881
:105400000020182908BF1C200090FFE70098019099
:10541000FFE701980290FFE70398029901F00C0161
:1054200040EA41000E9991F8201040EA01400C90AA
:105430000CE00E994A7EC86B40EA42308A681043FD
:1054400091F8201040EA01400C90FFE70E9890F888
:10545000200001280BD1FFE70E98416A0020CFF60B
:10546000FE7000EB41410C9808430C90FFE70E984A
:10547000806A50B1FFE70E99886AC96A00F47870B3
:1054800001430C9808430C90FFE70E98006846F221
:105490000001C5F60201884218D1FFE70E980068A6
:1054A000C06844F20701CFF6F07108400C99084338
:1054B0000E990968C8600E980068006920F0406085
:1054C0000E9A1168526B104308610DE00E98006847
:1054D000C0684CF20301CFF6F07108400C99084304
:1054E0000E990968C860FFE70E9800680BF00CF988
:1054F00009900E9800680BF0CFF8089009980028E2
:1055000040F0A880FFE70898002840F0A380FFE75C
:105510000E98006846F20001C5F60201884209D1E2
:10552000FFE70E99087E91F83810800340EA4100A9
:105530000C9006E00E98017E006B40EA81300C90E2
:10554000FFE70E980068C06844F2030188430C9995
:1055500008430E990968C8600E9890F84400012825
:1055600059D1FFE70E98006846F20001C5F6020126
:10557000884201D1FFE700E0FFE70E98806A20B182
:10558000FFE70E98C06A08B9FFE7FFE70E980068CA
:1055900046F20001C5F6020188421BD1FFE70E98D2
:1055A000006800694FF61E01CFF6004100EA0102D3
:1055B0000E9B1968986CD3F84CE0D3F850C040EAC1
:1055C0000E0040EA0C005B6D1843104340F00100F0
:1055D00008611FE00E98006800694FF61E01CFF6C3
:1055E000004100EA01020E9B19689C6CD3F84CE064
:1055F000D3F850C00020CFF6FF7000EB044040EA23
:105600000E0040EA0C005B6D1843104340F00100AF
:105610000861FFE706E00E980168086920F00100C4
:105620000861FFE70E980068006920F070400E9A4C
:105630001168126C104308610E98006846F2000170
:10564000C5F60201884204D0FFE70E98FCF720FD62
:10565000FFE7FFE70E98006901280CD1FFE70E98DD
:105660000068006B20F00F000E9A1168D269013AB1
:105670001043086306E00E980168086B20F00F00E5
:105680000863FFE70E98006E40F0010020F0020072
:105690000E99086608E00E99086E40F01000086642
:1056A00001208DF83700FFE79DF837008DF83F00A7
:1056B000FFE79DF83F0010B010BD000000000000A3
:1056C00080B5BCB03B9000203A903990389037902C
:1056D000369008A8B821FBF721F83B98006842F201
:1056E0000001C4F20201884240F09180FFE70020EF
:1056F00009904FF40021089102210A9110220B9287
:105700000C910D910E91C0210F911090119030903D
:1057100008A806F0C5F918B1FFE7FDF7A9FEFFE7F5
:10572000FFE744F2D840C5F60200016841F02001CD
:105730000160006800F0200007900798FFE7FFE78E
:1057400044F2E040C5F60200016841F00101016049
:10575000006800F0010006900698FFE7FFE744F2BA
:10576000E040C5F60200016841F0040101600068F4
:1057700000F0040005900598FFE7202036900320F4
:10578000019037900020039038900020C5F6020069
:1057900036A9029104F0E0FC019A029903981023C3
:1057A00036933792389040F60000C5F6020004F0B8
:1057B000D3FC039940F64410C2F20040049010223A
:1057C000C4F202020260092242608160C1604FF4AB
:1057D000806202614FF4006242614FF400528261C4
:1057E0004FF48072C2610162416202F019FA18B18D
:1057F000FFE7FDF73DFEFFE7FFE73B9840F644116A
:10580000C2F2004181653B988863FFE7FFE73CB047
:1058100080BD00000000000080B588B006900591B2
:10582000049206980168012042F20002C4F20202CA
:10583000914201900CD0FFE7069800684DF6007188
:10584000CBF6FD710844B0FA80F040090190FFE703
:105850000198C10746F20030C5F6020000291CBFBE
:1058600042F20030C4F202000AF0FEFE02900698F6
:1058700000680AF049FF002840F0C680FFE7FFE714
:10588000069890F85C00012804D1FFE702208DF80B
:105890001F00C2E00699012081F85C00FFE7FFE7E6
:1058A000029848B1FFE70298052805D0FFE7029863
:1058B000092840F09E80FFE70698FCF7CDFD8DF8A3
:1058C0000F009DF80F00002840F08B80FFE706983E
:1058D000006E40F4807040F60161884306990866C6
:1058E0000698006842F20011C4F20201884206D113
:1058F000FFE742F20000C4F20200009003E00698C5
:1059000000680090FFE7009806990968884203D074
:10591000FFE7029830B9FFE70699086E20F480107F
:105920000866FFE70698006EC004002806D5FFE76A
:105930000699486E20F00600486603E006990020AC
:105940004866FFE70698816D42F27120C0F60000BC
:10595000C8630698816D42F27930C0F60000086491
:105960000698816D42F24930C0F60000C86406987E
:1059700001681C200860FFE70699002081F85C00A0
:10598000FFE706980168486840F0100048600698F4
:10599000006846F20001C5F6020188420CD1FFE71B
:1059A0000699086891F8381049000AF0C9FE06986F
:1059B00000680AF035FE05E006990868096B0AF0F0
:1059C000D7FEFFE706980168806D4031059A049B79
:1059D00002F0D6FD8DF80F00069800680AF0F8FE78
:1059E00006E0FFE70699002081F85C00FFE7FFE78B
:1059F00009E001208DF80F00FFE70699002081F8EB
:105A00005C00FFE7FFE703E002208DF80F00FFE7EF
:105A10009DF80F008DF81F00FFE79DF81F0008B0EC
:105A200080BD00000000000080B58AB0089004F03E
:105A30007FFD0490089828B9FFE701208DF8270022
:105A400000F0AABC089890F8350002280ED0FFE7B5
:105A5000089980204865FFE70899002081F8340004
:105A6000FFE701208DF8270000F096BC0898016838
:105A700001201022C4F202029142039000F0A380A0
:105A8000FFE70898016801202822C4F2020291422F
:105A9000039000F09880FFE70898016801204022F9
:105AA000C4F202029142039000F08D80FFE7089853
:105AB000016801205822C4F202029142039000F0D2
:105AC0008280FFE70898016801207022C4F2020278
:105AD0009142039077D0FFE708980168012088225F
